:020000040000FA
:03000000020004F7
:0300010001FE06F7
:0300020001FC0CF2
:0300030001FA16E9
:0300040001F823DD
:0300050001F635CC
:0300060001F44AB8
:0300070001F263A0
:0300080001F08084
:0300090001EEA065
:03000A0001ECC442
:03000B0001EAEC1B
:03000C0001E917F0
:03000D0001E745C3
:03000E0001E57792
:03000F0001E3AD5D
:0300100001E1E625
:0300110001E022E9
:0300120001DE61AB
:0300130001DCA469
:0300140001DAEA24
:0300150001D933DB
:0300160001D77F90
:0300170001D5CF41
:0300180001D421EF
:0300190001D2779A
:03001A0001D0CF43
:03001B0001CF2BE7
:03001C0001CD898A
:03001D0001CBEB29
:03001E0001CA4FC5
:03001F0001C8B65F
:0300200001C720F5
:0300210001C58D89
:0300220001C3FD1A
:0300230001C26FA8
:0300240001C0E434
:0300250001BF5CBC
:0300260001BDD742
:0300270001BC54C5
:0300280001BAD347
:0300290001B956C4
:03002A0001B7DB40
:03002B0001B662B9
:03002C0001B4EC30
:03002D0001B378A4
:03002E0001B20715
:03002F0001B09984
:0300300001AF2CF1
:0300310001ADC25C
:0300320001AC5BC3
:0300330001AAF629
:0300340001A9938C
:0300350001A832ED
:0300360001A6D44C
:0300370001A578A8
:0300380001A41E02
:0300390001A2C75A
:03003A0001A171B0
:03003B0001A01E03
:03003C00019ECD55
:03003D00019D7EA4
:03003E00019C31F1
:03003F00019AE63D
:0300400001999D86
:03004100019857CC
:0300420001971211
:030043000195D054
:0300440001948F95
:03004500019350D4
:0300460001921410
:030047000190D94C
:03004800018FA085
:03004900018E69BC
:03004A00018D34F1
:03004B00018C0124
:03004C00018ACF57
:03004D000189A086
:03004E00018872B4
:03004F00018746E0
:0300500001861C0A
:030051000184F433
:030052000183CD5A
:030053000182A97E
:03005400018185A2
:03005500018064C3
:03005600017F44E3
:03005700017E2601
:03005800017D0A1D
:03005900017BEF39
:03005A00017AD652
:03005B000179BF69
:03005C000178A97F
:03005D0001779494
:03005E00017682A6
:03005F00017571B7
:03006000017461C7
:03006100017353D5
:03006200017246E2
:0300630001713BED
:03006400017032F6
:03006500016F2AFE
:03006600016E2305
:03006700016D1E0A
:03006800016C1B0D
:03006900016B1810
:03006A00016A1810
:03006B0001691810
:03006C0001681A0E
:03006D0001671E0A
:03006E0001662305
:03006F00016529FF
:03007000016430F8
:03007100016339EF
:03007200016244E4
:0300730001614FD9
:0300740001605CCC
:03007500015F6ABE
:03007600015E7AAE
:03007700015D8A9E
:03007800015C9C8C
:03007900015BB078
:03007A00015AC464
:03007B000159DA4E
:03007C000158F137
:03007D000158091E
:03007E0001572304
:03007F0001563DEA
:03008000015559CE
:03008100015476B1
:0300820001539592
:030083000152B473
:030084000151D453
:030085000150F631
:030086000150190D
:03008700014F3DE9
:03008800014E62C4
:03008900014D889E
:03008A00014CAF77
:03008B00014BD84E
:03008C00014B0124
:03008D00014A2CF9
:03008E00014958CD
:03008F00014884A1
:030090000147B273
:030091000146E144
:0300920001461113
:03009300014542E2
:03009400014473B1
:030095000143A67E
:030096000142DA4A
:0300970001420F14
:03009800014145DE
:0300990001407CA7
:03009A00013FB46F
:03009B00013EED36
:03009C00013E27FB
:03009D00013D62C0
:03009E00013C9D85
:03009F00013BDA48
:0300A000013B1809
:0300A100013A56CB
:0300A2000139968B
:0300A3000138D64B
:0300A40001381709
:0300A50001375AC6
:0300A60001369D83
:0300A7000135E13F
:0300A800013526F9
:0300A90001346CB3
:0300AA000133B26D
:0300AB000132FA25
:0300AC00013242DC
:0300AD0001318B93
:0300AE000130D648
:0300AF00013020FD
:0300B000012F6CB1
:0300B100012EB964
:0300B200012E0616
:0300B300012D55C7
:0300B400012CA478
:0300B500012BF428
:0300B600012B44D7
:0300B700012A9685
:0300B8000129E833
:0300B90001293BDF
:0300BA0001288F8B
:0300BB000127E436
:0300BC00012739E0
:0300BD0001268F8A
:0300BE000125E633
:0300BF0001253EDA
:0300C00001249682
:0300C1000123EF29
:0300C200012349CE
:0300C3000122A473
:0300C4000121FF18
:0300C50001215CBA
:0300C6000120B85E
:0300C700012016FF
:0300C800011F74A1
:0300C900011ED342
:0300CA00011E33E1
:0300CB00011D9381
:0300CC00011CF420
:0300CD00011C56BD
:0300CE00011BB95A
:0300CF00011B1CF6
:0300D000011A8092
:0300D1000119E42E
:0300D200011949C8
:0300D3000118AF62
:0300D400011815FB
:0300D50001177D93
:0300D6000116E42C
:0300D70001164DC2
:0300D8000115B659
:0300D900011520EE
:0300DA0001148A84
:0300DB000113F519
:0300DC00011360AD
:0300DD000112CD40
:0300DE0001123AD2
:0300DF000111A765
:0300E000011115F6
:0300E10001108487
:0300E200010FF318
:0300E300010F63A7
:0300E400010ED337
:0300E500010E44C5
:0300E600010DB653
:0300E700010D28E0
:0300E800010C9B6D
:0300E900010C0EF9
:0300EA00010B8285
:0300EB00010AF710
:0300EC00010A6C9A
:0300ED000109E224
:0300EE00010958AD
:0300EF000108CF36
:0300F000010846BE
:0300F1000107BE46
:0300F200010736CD
:0300F3000106AF54
:0300F400010629D9
:0300F5000105A35F
:0300F60001051DE4
:0300F70001049968
:0300F800010414EC
:0300F90001039070
:0300FA0001030DF2
:0300FB0001028A75
:0300FC00010208F6
:0300FD0001018678
:0300FE00010105F8
:0300FF0001008479
:00000001ff
