:020000040000FA
:020000000202FA
:020001000206F5
:020002000209F1
:02000300020DEC
:020004000212E6
:020005000215E2
:020006000219DD
:02000700021DD8
:020008000220D4
:020009000224CF
:02000A000228CA
:02000B00022BC6
:02000C00022EC2
:02000D000233BC
:02000E000236B8
:02000F000239B4
:02001000023CB0
:02001100023FAC
:020012000243A7
:020013000246A3
:0200140002499F
:02001500024C9B
:02001600025096
:02001700025293
:0200180002568E
:0200190002588B
:02001A00025C86
:02001B00025E83
:02001C0002627E
:02001D0002647B
:02001E00026777
:02001F00026A73
:02002000026D6F
:0200210002706B
:02002200027268
:02002300027564
:02002400027860
:02002500027B5C
:02002600027D59
:02002700027F56
:02002800028351
:0200290002854E
:02002A0002874B
:02002B00028A47
:02002C00028C44
:02002D00028F40
:02002E0002923C
:02002F0002933A
:02003000029636
:02003100029932
:02003200029B2F
:02003300029D2C
:02003400029F29
:0200350002A225
:0200360002A422
:0200370002A61F
:0200380002A91B
:0200390002AA19
:02003A0002AD15
:02003B0002AF12
:02003C0002B10F
:02003D0002B30C
:02003E0002B509
:02003F0002B805
:0200400002BA02
:0200410002BB00
:0200420002BEFC
:0200430002BFFA
:0200440002C1F7
:0200450002C4F3
:0200460002C5F1
:0200470002C7EE
:0200480002C9EB
:0200490002CBE8
:02004A0002CDE5
:02004B0002CEE3
:02004C0002D1DF
:02004D0002D2DD
:02004E0002D4DA
:02004F0002D6D7
:0200500002D8D4
:0200510002D9D2
:0200520002DCCE
:0200530002DCCD
:0200540002DFC9
:0200550002E0C7
:0200560002E2C4
:0200570002E4C1
:0200580002E5BF
:0200590002E7BC
:02005A0002E9B9
:02005B0002EAB7
:02005C0002EBB5
:02005D0002EEB1
:02005E0002EEB0
:02005F0002F0AD
:0200600002F2AA
:0200610002F3A8
:0200620002F6A4
:0200630002F7A2
:0200640002F8A0
:0200650002F99E
:0200660002FB9B
:0200670002FD98
:0200680002FD97
:02006900030092
:02006A00030091
:02006B0003038D
:02006C0003048B
:02006D00030589
:02006E00030687
:02006F00030785
:02007000030982
:02007100030B7F
:02007200030B7E
:02007300030D7B
:02007400030E79
:02007500031076
:02007600031075
:02007700031371
:0200780003146F
:0200790003146E
:02007A0003166B
:02007B00031769
:02007C00031867
:02007D00031A64
:02007E00031A63
:02007F00031C60
:02008000031D5E
:02008100031F5B
:02008200031F5A
:02008300032058
:02008400032255
:02008500032353
:02008600032451
:0200870003254F
:0200880003264D
:0200890003284A
:02008A00032948
:02008B00032947
:02008C00032B44
:02008D00032C42
:02008E00032C41
:02008F00032E3E
:02009000032F3C
:0200910003303A
:02009200033039
:02009300033137
:02009400033433
:02009500033432
:02009600033530
:0200970003362E
:0200980003372C
:0200990003382A
:02009A00033928
:02009B00033A26
:02009C00033A25
:02009D00033B23
:02009E00033D20
:02009F00033E1E
:0200A000033E1D
:0200A10003401A
:0200A200034019
:0200A300034117
:0200A400034314
:0200A500034313
:0200A600034411
:0200A70003450F
:0200A80003450E
:0200A90003460C
:0200AA00034809
:0200AB00034808
:0200AC00034906
:0200AD00034B03
:0200AE00034A03
:0200AF00034C00
:0200B000034DFE
:0200B100034DFD
:0200B200034FFA
:0200B300034FF9
:0200B400034FF8
:0200B5000350F6
:0200B6000352F3
:0200B7000352F2
:0200B8000353F0
:0200B9000354EE
:0200BA000355EC
:0200BB000355EB
:0200BC000356E9
:0200BD000357E7
:0200BE000358E5
:0200BF000358E4
:0200C000035AE1
:0200C100035BDF
:0200C200035BDE
:0200C300035BDD
:0200C400035DDA
:0200C500035CDA
:0200C600035ED7
:0200C700035ED6
:0200C800035FD4
:0200C9000360D2
:0200CA000360D1
:0200CB000361CF
:0200CC000362CD
:0200CD000363CB
:0200CE000363CA
:0200CF000363C9
:0200D0000364C7
:0200D1000365C5
:0200D2000366C3
:0200D3000366C2
:0200D4000368BF
:0200D5000367BF
:0200D6000369BC
:0200D7000369BB
:0200D800036AB9
:0200D900036AB8
:0200DA00036BB6
:0200DB00036BB5
:0200DC00036DB2
:0200DD00036CB2
:0200DE00036DB0
:0200DF00036EAE
:0200E000036FAC
:0200E100036FAB
:0200E2000370A9
:0200E3000370A8
:0200E4000371A6
:0200E5000372A4
:0200E6000372A3
:0200E7000373A1
:0200E8000373A0
:0200E90003759D
:0200EA0003759C
:0200EB0003759B
:0200EC00037699
:0200ED00037698
:0200EE00037796
:0200EF00037795
:0200F000037893
:0200F100037892
:0200F200037990
:0200F300037A8E
:0200F400037A8D
:0200F500037A8C
:0200F600037C89
:0200F700037B89
:0200F800037C87
:0200F900037D85
:0200FA00037D84
:0200FB00037E82
:0200FC00037E81
:0200FD00037F7F
:0200FE00037F7E
:0200FF0003807C
:00000001ff
